:020000040000FA
:10000000020ACC022003FFFFFFFFFF02200BFFFFCD
:10001000FFFFFF022013FFFFFFFFFF02201BFFFF78
:10002000FFFFFF022023FFFFFFFFFF02202BFFFF48
:10003000FFFFFF022033FFFFFFFFFF02203BFFFF18
:10004000FFFFFF022043FFFFFFFFFF02204BFFFFE8
:10005000FFFFFF022053FFFFFFFFFF02205BFFFFB8
:10006000FFFFFF022063FFFFFFFFFF02206BFFFF88
:10007000FFFFFF022073FFFFFFFFFF02207BFFFF58
:10008000FFFFFF022083FFFFFFFFFF02208B902076
:1000900000000100000000C80300FFFFFFFF000098
:1000A000040074F712091A74FF120A6A7E00803382
:1000B000900384E0F8851482851583E068700D90C4
:1000C0000382E0644D7005120335E9FE900385E478
:1000D000F0900387F0851482851583E0F8900384FF
:1000E000E068F07C017D00AA14AB151205268B098F
:1000F000EA450970030201B1851482851583E0C0C9
:10010000E0900387E0FA900385E0F8EA28F8E43409
:1001100000F9740228F582740339F583D0E0F09079
:100120000387E0601414602314604114605114606C
:10013000671470030200B0809C851482851583E0EB
:1001400064FE709190038774018089900384E4F0C9
:10015000851482851583E0900386F0C39480900314
:10016000874004E40200D474020200D4851482851E
:100170001583E0900382F090038774030200D48516
:100180001482851583E0900383F0900386E0601964
:1001900090038774040200D4900385E004F0F89083
:1001A0000386E06860030200D590038774050200AF
:1001B000D4EEF97401120A367F0202098074ED123E
:1001C000091A74FB120A6A75080475090078081286
:1001D0000ABB7402120B017A907B00790412081991
:1001E0007402120A36851482851583E0F47003A325
:1001F000E0F4600F851482851583E0F8A3E0F9E848
:100200004970030203297402120AF7E0687003A31D
:10021000E069700302030375080075100075112072
:10022000751200751300800A9005957810120A80E7
:100230006061750A01750B00780A120ABB74061218
:100240000B0185100A85110BAA0AE50B5407FB8ADE
:100250000C85110D85120E85130F740B780C120A84
:1002600051A90C1208197402120A367404120AF702
:10027000E0F9AA08AB091204E88A088B09900599ED
:100280007810120AA885100C85110D85120E8513A1
:100290000F800C750C94750D20750E00750F008580
:1002A0000C10850D11850E12850F1390059D781089
:1002B0001209FC400302022879001204E8790012B6
:1002C00004E87402120AF7EAF0A3EBF0750801756E
:1002D00009007808120ABB7402120B017A247B0809
:1002E00012089D7402120A367508047808120ABBB7
:1002F0007402120B017A907B0079041208197402BF
:10030000120A361204DA120AF7E0687003A3E069F1
:100310007017851482851583E0F47003A3E0F46000
:1003200008E84960047901800279007405120A36F0
:100330007F0C02098074EF12091A74FC120A6A9089
:100340000306E0FAA3E0F8E4C8F9EA28FEE9340875
:10035000FF750A01750900750800EEF510EF5401EC
:10036000F5118E0E8F0F7409780E120ADB850E0CB4
:10037000900383E014600914602E14607002047A04
:10038000EA45117005A90C120903750C10750D00D2
:10039000780C120ABB7C087D03EEFAEFFB12089D75
:1003A0007402120A3602047AC3E50C947995E0408F
:1003B0000675090102047A750A40750B00780A1265
:1003C0000ABB7C097D0374027810120A95AA10AB4F
:1003D00011A90C1208197402120A36900307E0A33F
:1003E000F0900306E0A3F0750A4302047A750C044A
:1003F000750D00780C120ABB7402120B017A907B07
:100400000079041208197402120A367402120AF7EB
:10041000E0F8A3E0F9851482851583E0687003A3F2
:10042000E069603F1204DA120AF7E8F0A3E9F07518
:100430000C01780C120ABB7402120B017A247B089F
:1004400012089D7402120A36750C04780C120ABB4D
:100450007402120B017A907B00790412081974025D
:10046000120A361204DA120AF7E0687003A3E06990
:1004700070057508018003750907900305E0D2E750
:10048000F0E509A3F0E50A900303F0744D650AFC5A
:100490007404250AFE7D038005E0CC6CFC0DEDFAAA
:1004A0003395E0FB74022AF58274033BF583EEF882
:1004B000C3EA98EB9400A2D265D03340DCECF07430
:1004C000012AFC3395E0FD7A027B03120572A9082C
:1004D0007404120A367F0A02098085148285158306
:1004E000E0F8A3E0F9740222C008C0097C088A0879
:1004F0008B09740F7808120ADBE508F8EA25E0FAA0
:10050000EB33FBE9A2E7500474014AFAE8A2E05099
:100510000874216AFA74106BFBE9C333F91CEC70A0
:10052000CDD009D0082274F812091A780079008019
:100530002774902EF582E43403F583E08A828B835E
:10054000F090048EE0041205F4C394FE400590047C
:100550008EE4F008E870010990048EE0FEA3E06EDE
:100560006007C3E89CE99D40C8E8FAE9FB7F010207
:10057000098074F712091A900590E0F509A3E0F5D7
:1005800008F8E509C398F895E0F9E508C39509E886
:10059000500B120798701178007900801B24FD50D1
:1005A0000109C39CE99D50EF7A007B008041E00483
:1005B000F0D2E908E8700109C3E89CE99D502C8A53
:1005C000828B83E0C0E0900591E0FE74922EF5826C
:1005D000E43404F583D0E01205F4900592E4F09041
:1005E0000591E0C394FD40C6E480C5E8FAE9FB7FCD
:1005F00002020980F08A828B83A3AA82AB8322C085
:1006000082C0838025E5C1C28BC0E090048FE0F8F2
:10061000749028F582E43403F583D0E0F090048FE1
:10062000E004F0C394FE4002E4F0A28B40D7A2E9BC
:100630005028C2E9900590E0F8A3E06860F0749259
:1006400028F582E43404F583E0F5C1900590E004D8
:10065000F0C394FE40D8E4F080D4D083D0822274DA
:10066000FF120A6A794A12080353BEFBE59DA2E60F
:1006700050FA0078F8790100E812079870F975C609
:1006800000E59E70FC43BE049062707408F012078F
:10069000DBC29443FE10C290438F011207A21201E5
:1006A000BDE97003020731E59D5418641070031210
:1006B00007E6750C00750D00750E26750F00800499
:1006C000C291D2901205FF7C017D00AA14AB1512D5
:1006D00005268B09EA4509601C851482851583E08F
:1006E00064106049E064EF700C750C00750D0075C6
:1006F0000E00750F00A2814034A2A0401E850C0898
:10070000850D09850E0A850F0B9005A1780C120A3C
:10071000A8E5084509450A450B70031207E6850D53
:1007200009E50954207099C290D2918097C290C275
:1007300091794E120803750C00750D00750E007549
:100740000F008028D290D291750C00750D00750EA7
:1007500000750F001205FF900599780C120AA890F9
:1007600005A5780C1209FC50EB1207E61205FF12E2
:1007700000A2E960061201BDE970C9850D09900566
:1007800099780C120AA8E509544060E0A290500440
:10079000C29080D8D29080D424FF18E934FFF9E8C1
:1007A0004922C082C0837403F5D575D48853FF3FB6
:1007B00085FFFF53F1FE43F30C53F2F3758680750A
:1007C000C480900593E4F0A3F075C2D875C50B758D
:1007D000C4024386401207DB02065AC29043FE0160
:1007E000C29143FE0222D290D291A28140FCA2A0EB
:1007F00040F8C290C291022000C2AF75C9AB75C962
:100800005B80FE781075B60FE5B4A2E750FAE5BB41
:10081000C39940F118E870ED2274F612091A890A9A
:10082000740F550AF508750900740B7808120A95BB
:10083000EA2400F8EB3480F9E82400E93509F98569
:10084000C709A2AFE433F508C2AFE50AC4540FFAF2
:10085000E5C754F84AF5C7740A120AF7E0FAA3E0AC
:10086000FB801C88828983E08C828D83F08882895A
:1008700083A3A882A9838C828D83A3AC82AD83EAF3
:10088000FEEBFFEE24FF1AEF34FFFBEE4F70D48532
:1008900009C7E508A2E092AF7F0302098074F7124E
:1008A000091AED900388F0ECA3F0A37462F0A3742E
:1008B00073F0A3E0541FF07409120AF7E0F508A3DF
:1008C000E0F509E508333354FC90038DF0740678A5
:1008D00008120ADBE50890038CF090038E7412F086
:1008E000A37442F075D1FE75D601EA906271F0EB07
:1008F000A3F0906270E0D2E1F0E0A2E740FB7F025B
:10090000020980C082C083E9C333906272F09062B2
:1009100070E0D2E0F0D083D082222514C582C0E0FE
:10092000E51534FFC583C0E0E514C3958224F910B2
:10093000AF08858315858214800885831585821408
:10094000D2AFCEF0A3E520F0A37808E608F0A3DE4E
:10095000FAEFF0A3E58124FBF8E608F0A3E608F03F
:10096000A30808E608F0A3E608F0A315811581D0D6
:10097000E0FED0E0F815811581E8C0E0EEC0E0228D
:10098000851583851482E0A3FEE0A3F5207808E0B6
:10099000A3F608DFFAE0A3FFE0A3C0E0E0A3C0E015
:1009A000E0A3C0E0E0A3C0E010AF08858214858317
:1009B000158008858214858315D2AFD083D082221A
:1009C000E4900302789479038002F0A3D8FCD9FA6A
:1009D0007A957B0590008E781579018015E493A3B4
:1009E000AD82AE838A828B83F0A3AA82AB838D8291
:1009F0008E83D8E9D9E712065F120B09C008C3E05D
:100A000096F50808A3E096420808A3E09642080875
:100A1000A3E09645087001D3D008222514F5821072
:100A2000AF08F514400C15158008F5144002151593
:100A3000D2AF8515832200C0D0251410AF08F5145D
:100A4000500C05158008F51450020515D2AFD0D012
:100A5000226016080808C6C313C618C613C618C6EF
:100A600013C618C613C6D5E0EA22251410AF08F540
:100A700014400C15158008F51440021515D2AF224C
:100A8000E066701008A3E066700A08A3E0667004D0
:100A900008A3E06622700422600D18C6C333C6089E
:100AA000C633C6D5E0F41822E026F608A3E036F6F1
:100AB00008A3E036F608A3E036F62274028000C0F0
:100AC000E0F404120A1BD0E0120AEA2275D0007585
:100AD000813F7514027515030209C0600C08C6C376
:100AE00013C618C613C6D5E0F422CAC0E0E6F0A3C8
:100AF00008DAFAD0E0FA222514F582E43515F583F8
:100B0000222514FCE43515FD2200000080FBFFFFC8
:100B1000FFFFFFFFFFFFFFFFFFFFFFFFFFFFFFFFE5
:100B2000FFFFFFFFFFFFFFFFFFFFFFFFFFFFFFFFD5
:100B3000FFFFFFFFFFFFFFFFFFFFFFFFFFFFFFFFC5
:100B4000FFFFFFFFFFFFFFFFFFFFFFFFFFFFFFFFB5
:0400000500000ACC21
:00000001FF
